:1000000009C021C020C020C01EC01DC01CC01BC014
:100010001AC019C011241FBECFE9CDBF10E0A0E661
:10002000B0E0E0E4F1E002C005900D92A036B10727
:10003000D9F720E0A0E6B0E001C01D92A436B207D7
:10004000E1F724D07BC0DCCF1F920F920FB60F9246
:1000500011248F9380916300813011F4C098C29A6B
:1000600080916300823011F4C09AC298809162003E
:10007000813009F4C19A80916200823009F4C198FC
:100080008F910F900FBE0F901F90189587E087BB40
:1000900081E088BB83B7816083BF89B7826089BFF5
:1000A000789451E042E0B399FECF10926100109233
:1000B0006000B39938C08091600090916100019612
:1000C000909361008093600081EE94E00197F1F7D6
:1000D00000C00000B39BEFCF809160009091610061
:1000E0009C012B5031092B38310558F420916300C5
:1000F000222311F0223019F45093630002C0409380
:1001000063009C01275931092D35314070F420914D
:100110006200222311F0223019F45093620005C0CE
:100120004093620002C080E090E0853F914008F477
:10013000BACF4093630040936200B5CFF894FFCFED
:00000001FF
