:1000000009C021C020C020C01EC01DC01CC01BC014
:100010001AC019C011241FBECFE9CDBF10E0A0E661
:10002000B0E0EEECF1E002C005900D92A436B1070D
:10003000D9F720E0A4E6B0E001C01D92A836B207CF
:10004000E1F766D0C2C0DCCF1F920F920FB60F92BD
:1000500011248F939F9380916300813029F48091C4
:1000600067008F3F39F426C0823021F58091670008
:10007000882301F1F89480916300813041F49091DC
:10008000670080916200890F8093670007C08091AC
:10009000670090916200891B8093670080916700E0
:1000A0008F3F11F4C29A01C0C29880916700809579
:1000B00086BF789480916100813029F48091660038
:1000C0008F3F39F41EC08230E1F4809166008823AE
:1000D000C1F0F89480916100813041F49091660004
:1000E00080916000890F8093660007C08091660050
:1000F00090916000891B809366008091660089BDA5
:1001000078949F918F910F900FBE0F901F9018952C
:1001100087E087BB81E088BB83EA8FBD83E083BF34
:1001200012BE80916700809586BF8091660089BD70
:1001300089B7826089BF789442E051E0B399FECFDD
:100140001092650010926400B39934C080916400ED
:10015000909165000196909365008093640081EE14
:1001600094E00197F1F700C00000B39BEFCF8091BE
:100170006400909165009C01265031092E353105AF
:1001800048F420916300223019F45093630002C0B8
:10019000409363009C01275931092539310560F4EA
:1001A00020916100223019F45093610005C0409302
:1001B000610002C080E090E08F35914008F4BECF2E
:0E01C0004093630040936100B9CFF894FFCFE5
:0401CE000302030223
:00000001FF
